:100000000C9463000C948B000C948B000C948B006C
:100010000C948B000C948B000C948B000C948B0034
:100020000C948B000C948B000C948B000C948B0024
:100030000C948B000C948B000C948B000C948B0014
:100040000C944A030C948B000C9459050C949C0559
:100050000C948B000C948B000C948B000C948B00F4
:100060000C948B000C948B00000000070002010030
:100070000003040600000000000000000102040864
:100080001020408001020408102001020408102002
:10009000040404040404040402020202020203032E
:1000A00003030303000000002300260029000000D2
:1000B0000000250028002B0000000000240027007D
:1000C0002A004303580611241FBECFEFD8E0DEBF3D
:1000D000CDBF11E0A0E0B1E0E2E0F6E102C00590A2
:1000E0000D92AC35B107D9F722E0ACE5B1E001C023
:1000F0001D92A132B207E1F710E0C6ECD0E004C0D7
:100100002297FE010E94FB0AC23CD107C9F70E9458
:10011000AE060C94FF0A0C940000DC0115966C935B
:10012000159716964C93169770E0FB01E458FF4F15
:10013000E4911796EC931797FB01E057FF4F6491FA
:1001400018966C93189740E85EE360E070E01D96A7
:100150004D935D936D937C9350970895CF93DF9368
:10016000EC0162E08D810E94580440E358EF6FEF8C
:100170007FEF49875A876B877C87DF91CF910895FE
:10018000AF92BF92CF92DF92EF92FF920F931F93A5
:10019000CF93DF93EC01AF80662311F0BA2C01C03E
:1001A000B12CA885B0E0AA0FBB1FAC55BF4F40E0F3
:1001B00050E0BA01FD0185919491FC0180818A2172
:1001C0008B1112C08A019B010F5F1F4F2F4F3F4FB2
:1001D000CD84DE84EF84F8884C155D056E057F05BF
:1001E00038F4B901A801E6CF342F252FCB0104C084
:1001F00030E020E080E090E0632F722FDF91CF911C
:100200001F910F91FF90EF90DF90CF90BF90AF9034
:100210000895CF92DF92EF92FF920F931F93CF93A7
:10022000DF93CDB7DEB7C054D1400FB6F894DEBF30
:100230000FBECDBF8C01F62E0E949403F11016C0A4
:10024000F801C184D284E384F4849B01AC012C19AD
:100250003D094E095F0969017A0130EDC31637E0A7
:10026000D306E104F10410F48189BAC0F801618772
:10027000728783879487148213821282118210827C
:1002800061E085810E9491046AEF70E080E090E077
:100290000E94C30361E0F80185810E94580460E078
:1002A000F80185810E94910464E170E080E090E0B3
:1002B0000E94C303F89461E0F80185810E949104D3
:1002C00088E290E00E94E90362E0F80185810E94E3
:1002D00058048AE090E00E94E90360E0C8010E94AF
:1002E000C000672B682B692B41F061E0C8010E94B8
:1002F000C000672B682B692B21F4F801118A7894D0
:100300006EC06E01FFEBCF1AFEEFDF0A9E012F5F7A
:100310003F4F790160E0C8010E94C000F70160838F
:1003200071838283938361E0C8010E94C000F7015A
:100330006483758386839783F8E0EF0EF11CEC14D9
:10034000FD0441F778949E012F5F3F4F790120E033
:1003500030E0F70140815181628173818481958110
:10036000A681B7814115510561057105B1F100976D
:10037000A105B10591F1F901F595E795F595E79599
:10038000F595E795E00FF11FD080DD0C4817590770
:100390006A077B0710F0D08203C08D2D81608083B7
:1003A0002F5F3F4FF8E0EF0EF11C2832310589F640
:1003B000F801248130E04081818190E0840F911D1B
:1003C0004281840F911D4381840F911D9927281725
:1003D000390719F481E0818B03C0F801118A80E0AC
:1003E000C05CDE4F0FB6F894DEBF0FBECDBFDF910D
:1003F000CF911F910F91FF90EF90DF90CF900895D4
:10040000CF92DF92EF92FF920F931F93CF93DF93E0
:10041000EC01162F642F0E940901882309F449C0BA
:100420008E818B3031F008F444C08551823040F029
:1004300040C06A8170E080E090E00E94BA0924C068
:100440000A81602F6F7770E080E090E00E94BC0925
:1004500020E030E040E853E40E94700A6B017C0128
:100460006B8170E080E090E00E94BC099B01AC01D0
:10047000C701B6010E94B90820E030E040E251E433
:100480000E94210907FD90581123B9F020E030E0C7
:1004900040E151E40E94700A20E030E040EA50E47C
:1004A0000E94210920E030E040E052E40E94B908B7
:1004B00004C060E070E080EC9FE7DF91CF911F9176
:1004C0000F91FF90EF90DF90CF900895CF92DF9241
:1004D000EF92FF92CF93DF93EC0160E00E9409015D
:1004E000882379F18E818B3029F158F18551823042
:1004F00040F5688170E080E090E00E94BA0920E059
:1005000030E040E853E40E94700A6B017C0169818D
:1005100070E080E090E00E94BC099B01AC01C70143
:10052000B6010E94B90820E030E040E251E40E94A8
:1005300021090BC0688170E080E090E00E94BA0958
:1005400004C060E070E080EC9FE7DF91CF91FF9006
:10055000EF90DF90CF90089540E855E260E070E0C2
:1005600087E791E00E94D70561E08DE00E94580482
:100570008CE591E00C94AE008F929F92AF92BF9267
:10058000CF92DF92EF92FF9260E08CE591E00E94C3
:1005900066024B015C0140E060E08CE591E00E9466
:1005A00000026B017C01A5019401C501B4010E9408
:1005B000D30A81115AC0A7019601C701B6010E9452
:1005C000D30A811152C06BE787E791E00E94FB06D6
:1005D00060E071E087E791E00E94F90622E030E0F8
:1005E000B501A40187E791E00E94B6086CE071E0D4
:1005F00087E791E00E94F9066EE071E087E791E0FD
:100600000E94F90622E030E0B701A60187E791E0F9
:100610000E94B6086DE787E791E00E94FB0687E736
:1006200091E00E94020761E08DE00E94910468EE73
:1006300073E080E090E00E94C30360E08DE00E94E0
:10064000910468EE73E080E090E00E94C30360EAEA
:100650007FE080E090E0FF90EF90DF90CF90BF9040
:10066000AF909F908F900C94C3036DE171E087E78A
:1006700091E0FF90EF90DF90CF90BF90AF909F9070
:100680008F900C94160726E046E162E08CE591E03D
:100690000C948D001F920F920FB60F9211242F937E
:1006A0003F938F939F93AF93BF9380916F019091EE
:1006B0007001A0917101B091720130916E0123E03F
:1006C000230F2D3720F40196A11DB11D05C026E88A
:1006D000230F0296A11DB11D20936E0180936F011F
:1006E00090937001A0937101B09372018091730196
:1006F00090917401A0917501B09176010196A11DB0
:10070000B11D8093730190937401A0937501B09310
:100710007601BF91AF919F918F913F912F910F9053
:100720000FBE0F901F9018952FB7F89460916F012E
:100730007091700180917101909172012FBF0895A5
:100740003FB7F8948091730190917401A091750165
:10075000B091760126B5A89B05C02F3F19F00196F0
:10076000A11DB11D3FBF6627782F892F9A2F620FD9
:10077000711D811D911D42E0660F771F881F991F13
:100780004A95D1F70895CF92DF92EF92FF92CF93DF
:10079000DF936B017C010E94A003EB01C114D10423
:1007A000E104F10479F00E94A0036C1B7D0B683E0C
:1007B0007340A0F381E0C81AD108E108F108C851DC
:1007C000DC4FECCFDF91CF91FF90EF90DF90CF9097
:1007D00008950197009739F0880F991F880F991F86
:1007E00002970197F1F70895789484B5826084BDEB
:1007F00084B5816084BD85B5826085BD85B5816025
:1008000085BDEEE6F0E0808181608083E1E8F0E084
:100810001082808182608083808181608083E0E8B3
:10082000F0E0808181608083E1EBF0E08081846092
:100830008083E0EBF0E0808181608083EAE7F0E094
:1008400080818460808380818260808380818160F8
:1008500080838081806880831092C10008958330F6
:1008600081F028F4813099F08230A1F0089586302B
:10087000A9F08730B9F08430D1F4809180008F7D69
:1008800003C0809180008F7780938000089584B5A5
:100890008F7702C084B58F7D84BD08958091B000AC
:1008A0008F7703C08091B0008F7D8093B000089552
:1008B000CF93DF9390E0FC01E458FF4F2491FC01BB
:1008C000E057FF4F8491882349F190E0880F991FEA
:1008D000FC01E854FF4FA591B49182559F4FFC0154
:1008E000C591D4919FB7611108C0F8948C9120955F
:1008F00082238C93888182230AC0623051F4F89459
:100900008C91322F309583238C938881822B88831E
:1009100004C0F8948C91822B8C939FBFDF91CF9170
:1009200008950F931F93CF93DF931F92CDB7DEB738
:10093000282F30E0F901E859FF4F8491F901E4587C
:10094000FF4F1491F901E057FF4F04910023C9F0C4
:10095000882321F069830E942F046981E02FF0E051
:10096000EE0FFF1FE255FF4FA591B4919FB7F8948A
:100970008C91611103C01095812301C0812B8C9350
:100980009FBF0F90DF91CF911F910F910895FC01B0
:1009900024853585F901E05CFF4F80819181329695
:1009A00020813181821B930B8F7399270895FC015D
:1009B00084859585FC01E05CFF4F40815181329632
:1009C000208131814217530741F00190F081E02DE1
:1009D000E80FF91F808190E008958FEF9FEF089551
:1009E000FC0184859585FC01E05CFF4F40815181CD
:1009F0003296208131814217530779F0A081B1816D
:100A0000A80FB91F8C91208131812F5F3F4F2F7329
:100A100033273183208390E008958FEF9FEF08956F
:100A2000FC0181A1882329F0A489B5898C9186FFD6
:100A3000FBCF11A20895CF93DF93FC012685378564
:100A4000D901A05CBF4F8D919C91119701968F7336
:100A50009927E901CE5BDF4F4881598184179507BB
:100A6000D9F30D90BC91A02DA20FB31F6C93A68556
:100A7000B785A05CBF4F11969C938E93A689B789CA
:100A80002C9181E090E0078C02C0880F991F0A9496
:100A9000E2F7282B2C9381E081A30488F589E02DCF
:100AA00080818064808381E090E0DF91CF91089520
:100AB00008951F920F920FB60F9211242F933F9318
:100AC0004F938F939F93EF93FF938091C00082FD8C
:100AD0001CC04091C60080911D0290911E0201969B
:100AE0008F73992720911F0230912002821793075C
:100AF00071F0E0911D02F0911E02E352FE4F40831F
:100B000090931E0280931D0202C08091C600FF9147
:100B1000EF919F918F914F913F912F910F900FBE29
:100B20000F901F90189587E791E00E94C704892BCA
:100B300011F00C94580508951F920F920FB60F9262
:100B400011242F933F938F939F93EF93FF932091C3
:100B5000D9013091DA018091DB019091DC012817F5
:100B6000390731F48091C1008F7D8093C10014C09A
:100B7000E091DB01F091DC01E756FE4F208180918E
:100B8000DB019091DC0101968F7399279093DC0132
:100B90008093DB012093C600FF91EF919F918F918D
:100BA0003F912F910F900FBE0F901F901895CF92ED
:100BB000DF92EF92FF92CF93DF93EC016A017B010A
:100BC000411581EE580761057105F9F0EC89FD8941
:100BD00081E090E008A002C0880F991F0A94E2F714
:100BE000808360E079E08DE390E0A70196010E94A8
:100BF000D70A215031094109510956954795379532
:100C00002795211580E1380798F0EC89FD8910823D
:100C100060E874E88EE190E0A70196010E94D70A8F
:100C20002150310941095109569547953795279526
:100C3000E889F9893083EA89FB89208319A2EE8942
:100C4000FF89408181E090E09C010C8C02C0220F62
:100C5000331F0A94E2F7422B4083EE89FF894081DB
:100C60009C010D8C02C0220F331F0A94E2F7422B25
:100C70004083EE89FF8940819C010E8C02C0220FC7
:100C8000331F0A94E2F7422B4083EE89FF892081CB
:100C90000F8C02C0880F991F0A94E2F78095822377
:100CA0008083DF91CF91FF90EF90DF90CF900895F8
:100CB00010927A011092790188EE93E0A0E0B0E002
:100CC00080937B0190937C01A0937D01B0937E0182
:100CD00081E491E090937801809377018DED91E02C
:100CE000909384018093830189E991E09093860138
:100CF0008093850185EC90E0909388018093870133
:100D000084EC90E090938A018093890180EC90E0DC
:100D100090938C0180938B0181EC90E090938E01F5
:100D200080938D0182EC90E09093900180938F01ED
:100D300086EC90E0909392018093910184E08093FF
:100D4000930183E08093940187E08093950185E08F
:100D50008093960181E08093970108950E94F403A7
:100D60000E94AC02C3E9D5E00E94BC022097E1F3E7
:100D70000E949305F9CFCF92DF92EF92FF920F93EB
:100D80001F93CF93DF936C017A01EB01E60EF71E00
:100D900000E010E0CE15DF0561F06991D601ED911C
:100DA000FC910190F081E02DC6010995080F191FF3
:100DB000F1CFC801DF91CF911F910F91FF90EF907C
:100DC000DF90CF9008956115710581F0DB010D90E2
:100DD0000020E9F7AD0141505109461B570BDC01DA
:100DE000ED91FC910280F381E02D099480E090E088
:100DF00008950C94E306DC01ED91FC910190F081E3
:100E0000E02D09940F931F93CF93DF93EC016DE0D6
:100E10000E94FB068C016AE0CE010E94FB06800F57
:100E2000911FDF91CF911F910F9108950F931F9301
:100E3000CF93DF93EC010E94E3068C01CE010E9468
:100E40000207800F911FDF91CF911F910F9108959D
:100E50008F929F92AF92BF92CF92DF92EF92FF92CA
:100E60000F931F93CF93DF93CDB7DEB7A1970FB644
:100E7000F894DEBF0FBECDBF7C01C42EE52FCB01A1
:100E8000D22E19A221E02D1510F02AE0D22E8E01CB
:100E90000F5D1F4F8D2C912CA12CB12C6C2D7E2F12
:100EA000A50194010E94D70A8C2DD29E801911248D
:100EB000015011098A3014F4805D01C0895CF80189
:100EC0008083211531054105510521F0C22EE32F04
:100ED000CA01E4CFB801C7010E94E306A1960FB68C
:100EE000F894DEBF0FBECDBFDF91CF911F910F9160
:100EF000FF90EF90DF90CF90BF90AF909F908F903A
:100F00000895CF92DF92EF92FF920F931F93CF93AA
:100F1000DF93EC016A017B012115310579F4E88149
:100F2000F9810190F081E02D642FDF91CF911F9125
:100F30000F91FF90EF90DF90CF9009942A30310508
:100F4000E9F477FF1AC06DE20E94FB068C0144278A
:100F50005527BA014C195D096E097F092AE0CE01B7
:100F60000E942807800F911FDF91CF911F910F9151
:100F7000FF90EF90DF90CF9008952AE0B701A6018F
:100F8000CE01DF91CF911F910F91FF90EF90DF90F5
:100F9000CF900C9428074F925F926F927F928F921E
:100FA0009F92AF92BF92CF92DF92EF92FF920F93F8
:100FB0001F93CF93DF93EC016A017B01B22E9A015C
:100FC000AB01C701B6010E94D30A882319F06DE472
:100FD00071E027C026013701E89477F82FEF3FEF43
:100FE0004FE75FE7C301B2010E94D30A81110DC030
:100FF0002FEF3FEF4FE75FE7C301B2010E941D09EA
:1010000018161CF461E571E00CC02FEF3FEF4FE7BD
:101010005FE4C701B6010E946C0A1816ACF465E5DE
:1010200071E0CE01DF91CF911F910F91FF90EF9072
:10103000DF90CF90BF90AF909F908F907F906F90F8
:101040005F904F900C94E3062FEF3FEF4FE75FEC7C
:10105000C701B6010E941D0987FDE1CF20E030E005
:10106000A901C701B6010E941D0987FF0AC06DE2F0
:10107000CE010E94FB068C01F7FAF094F7F8F09489
:1010800002C000E010E0A12C60E070E080E09FE38F
:10109000AB1441F020E030E040E251E40E9421092D
:1010A000A394F6CF9B01AC01C701B6010E94B90819
:1010B0006B017C010E948E092B013C010E94BA0940
:1010C0009B01AC01C701B6010E94B8086B017C010D
:1010D0002AE0B301A201CE010E942807080F191FC0
:1010E000BB2039F069E571E0CE010E94E306080FEC
:1010F000191F7B2C772041F120E030E040E251E4E1
:10110000C701B6010E94700A6B017C010E94890927
:101110004B01AA2497FCA094BA2C2AE030E0B50138
:10112000A401CE010E948107080F191FC501B40157
:101130000E94BC099B01AC01C701B6010E94B8081E
:101140006B017C017A94D6CFC801DF91CF911F91BA
:101150000F91FF90EF90DF90CF90BF90AF909F9056
:101160008F907F906F905F904F9008950C94CB0775
:101170005058BB27AA270ED075C166D130F06BD16D
:1011800020F031F49F3F11F41EF45BC10EF4E095A2
:10119000E7FB51C1E92F77D180F3BA1762077307D4
:1011A0008407950718F071F49EF58FC10EF4E09551
:1011B0000B2EBA2FA02D0B01B90190010C01CA0111
:1011C000A0011124FF27591B99F0593F50F4503EBC
:1011D00068F11A16F040A22F232F342F4427585FAE
:1011E000F3CF469537952795A795F0405395C9F7C6
:1011F0007EF41F16BA0B620B730B840BBAF091507E
:10120000A1F0FF0FBB1F661F771F881FC2F70EC01C
:10121000BA0F621F731F841F48F4879577956795EF
:10122000B795F7959E3F08F0B3CF9395880F08F0D8
:101230009927EE0F979587950895D9D008F481E006
:1012400008950CD00FC107D140F0FED030F021F44A
:101250005F3F19F0F0C0511139C1F3C014D198F3B8
:101260009923C9F35523B1F3951B550BBB27AA2727
:1012700062177307840738F09F5F5F4F220F331F99
:10128000441FAA1FA9F333D00E2E3AF0E0E830D065
:1012900091505040E695001CCAF729D0FE2F27D068
:1012A000660F771F881FBB1F261737074807AB0736
:1012B000B0E809F0BB0B802DBF01FF2793585F4FAB
:1012C0002AF09E3F510568F0B6C000C15F3FECF3C5
:1012D000983EDCF3869577956795B795F7959F5F70
:1012E000C9F7880F911D9695879597F90895E1E0C4
:1012F000660F771F881FBB1F621773078407BA0723
:1013000020F0621B730B840BBA0BEE1F88F7E0957D
:10131000089504D06894B111D9C00895BCD088F064
:101320009F5790F0B92F9927B751A0F0D1F0660FD1
:10133000771F881F991F1AF0BA95C9F712C0B130EC
:1013400081F0C3D0B1E00895C0C0672F782F8827FF
:10135000B85F39F0B93FCCF3869577956795B3952B
:10136000D9F73EF490958095709561957F4F8F4F9A
:101370009F4F0895E89409C097FB3EF4909580959F
:10138000709561957F4F8F4F9F4F9923A9F0F92F4B
:1013900096E9BB279395F695879577956795B795C9
:1013A000F111F8CFFAF4BB0F11F460FF1BC06F5FAF
:1013B0007F4F8F4F9F4F16C0882311F096E911C0C1
:1013C000772321F09EE8872F762F05C0662371F0E2
:1013D00096E8862F70E060E02AF09A95660F771FF6
:1013E000881FDAF7880F9695879597F90895990FD2
:1013F0000008550FAA0BE0E8FEEF16161706E807DF
:10140000F907C0F012161306E407F50798F0621BFF
:10141000730B840B950B39F40A2661F0232B242BD4
:10142000252B21F408950A2609F4A140A6958FEFF3
:10143000811D811D089597F99F6780E870E060E045
:1014400008959FEF80EC089500240A94161617065D
:1014500018060906089500240A94121613061406A5
:1014600005060895092E0394000C11F4882352F008
:10147000BB0F40F4BF2B11F460FF04C06F5F7F4FC0
:101480008F4F9F4F089557FD9058440F551F59F0A7
:101490005F3F71F04795880F97FB991F61F09F3F61
:1014A00079F087950895121613061406551FF2CF8A
:1014B0004695F1DF08C0161617061806991FF1CFDA
:1014C00086957105610508940895E894BB27662701
:1014D0007727CB0197F908958ADF08F48FEF0895F5
:1014E0000BD0C0CFB1DF28F0B6DF18F0952309F09C
:1014F000A2CFA7CF1124EACFC6DFA0F3959FD1F3E7
:10150000950F50E0551F629FF001729FBB27F00DB1
:10151000B11D639FAA27F00DB11DAA1F649F662706
:10152000B00DA11D661F829F2227B00DA11D621F55
:10153000739FB00DA11D621F839FA00D611D221F0F
:10154000749F3327A00D611D231F849F600D211DF3
:10155000822F762F6A2F11249F5750408AF0E1F096
:1015600088234AF0EE0FFF1FBB1F661F771F881FDF
:1015700091505040A9F79E3F510570F05CCFA6CF27
:101580005F3FECF3983EDCF3869577956795B795CA
:10159000F795E7959F5FC1F7FE2B880F911D9695F4
:1015A000879597F9089523DF880B990B0895A1E299
:1015B0001A2EAA1BBB1BFD010DC0AA1FBB1FEE1FCD
:1015C000FF1FA217B307E407F50720F0A21BB30B18
:1015D000E40BF50B661F771F881F991F1A9469F794
:1015E00060957095809590959B01AC01BD01CF01F0
:1015F0000895EE0FFF1F0590F491E02D0994F894E3
:02160000FFCF1A
:101602002268756D6964697479223A002C0022742B
:10161200656D7065726174757265223A0046616922
:101622006C656420746F20726561642066726F6DF0
:10163200204448542073656E736F722100000000CD
:10164200001B05BB06C704F004D70410056E616ECB
:0C16520000696E66006F7666002E0000D6
:00000001FF
